:100000000C942A000C943F000C943F000C943F0089
:100010000C943F000C943F000C943F000C943F0064
:100020000C943F000C943F000C943F000C943F0054
:100030000C943F000C943F000C943F000C943F0044
:100040000C943F000C943F000C943F000C943F0034
:100050000C943F0011241FBECFE5D8E0DEBFCDBF1A
:1000600011E0A0E6B0E0E2E8F5E202C005900D92F2
:10007000A43DB107D9F70E941B0A0C94BF120C943F
:100080000000EF92FF920F931F937B018C0120E001
:1000900030E040E05FE40E94410388238CF0C80117
:1000A000B70120E030E040E05FE40E94B9010E9427
:1000B000A1039B01AC01205030404040504806C095
:1000C000C801B7010E94A1039B01AC01B901CA019B
:1000D0001F910F91FF90EF900895A0E0B0E0E3E74B
:1000E000F0E00C948812DC012B01FA019C91923013
:1000F00008F439C1EB018881823008F433C19430AF
:1001000069F4843009F02FC111969C91119789816F
:10011000981709F428C1ACECB1E025C1843009F48A
:1001200021C18230A9F4923009F01DC19A01AD01BC
:1001300088E0EA010990AE01E90109929E0181502F
:10014000C1F7E201898111969C918923818308C1BD
:10015000923009F407C112962D903C901397EB0151
:100160008A819B811496AD90BD90CD90DC901797BD
:10017000EC80FD800E811F819101281B390BB90194
:1001800037FF04C066277727621B730B6032710547
:100190000CF061C0121613066CF537014801062EEB
:1001A00004C096948794779467940A94D2F721E0D8
:1001B00030E040E050E004C0220F331F441F551FC1
:1001C0006A95D2F721503040404050402E213F21C7
:1001D00040235123211531054105510521F021E02E
:1001E00030E040E050E079018A01E628F72808294C
:1001F00019293CC0232BD1F1260E371E35014601AB
:10020000062E04C096948794779467940A94D2F744
:1002100021E030E040E050E004C0220F331F441FD3
:10022000551F6A95D2F721503040404050402A2156
:100230003B214C215D21211531054105510521F05E
:1002400021E030E040E050E059016A01A628B728DB
:10025000C828D9280BC0821593052CF01C01AA24AC
:10026000BB24650103C0EE24FF24870111969C91F5
:10027000D20111968C91981709F445C0992339F051
:10028000A80197012A193B094C095D0906C0A6017E
:1002900095012E193F09400B510B57FD08C01182E3
:1002A0003382228224833583468357831DC081E0B5
:1002B00081833382228288279927DC01821B930B5A
:1002C000A40BB50B84839583A683B7830DC0220F3F
:1002D000331F441F551F24833583468357838281F0
:1002E000938101979383828324813581468157814D
:1002F000DA01C9010197A109B1098F5F9F4FAF4F83
:10030000BF4328F30BC0918333822282EA0CFB1C8B
:100310000C1D1D1DE482F5820683178383E0808314
:10032000248135814681578157FF1AC0C901AA2708
:1003300097FDA095BA2F81709070A070B0705695FF
:10034000479537952795822B932BA42BB52B848328
:100350009583A683B7838281938101969383828359
:10036000DF0101C0D201CD01CDB7DEB7E2E10C94CF
:10037000A412A0E2B0E0EFEBF1E00C9494126983D8
:100380007A838B839C832D833E834F835887E9E058
:10039000EE2EF12CEC0EFD1ECE010196B7010E944F
:1003A000CA048E010F5E1F4FCE010596B8010E9450
:1003B000CA048A8991E089278A8BC701B801AE01F6
:1003C000475E5F4F0E946D000E94F503A096E6E035
:1003D0000C94B012A0E2B0E0E0EFF1E00C949412C3
:1003E00069837A838B839C832D833E834F835887D5
:1003F000F9E0EF2EF12CEC0EFD1ECE010196B701B7
:100400000E94CA048E010F5E1F4FCE010596B801EF
:100410000E94CA04C701B801AE01475E5F4F0E9447
:100420006D000E94F503A096E6E00C94B012A0E2E5
:10043000B0E0EDE1F2E00C94881269837A838B835B
:100440009C832D833E834F835887CE010196BE0146
:10045000675F7F4F0E94CA04CE010596BE016F5EA2
:100460007F4F0E94CA049985923088F08989823032
:10047000C8F0943019F4823051F404C0843029F467
:10048000923081F48CEC91E0C6C0923049F420E0C7
:100490009A858A89981321E02A87CE010996BBC0E4
:1004A000823049F420E09A858A89981321E02A8BCA
:1004B000CE014196B0C02D843E844F8458886D880B
:1004C0007E888F88988CEE24FF248701AA24BB2481
:1004D000650140E050E060E070E0E0E0F0E0C10184
:1004E00081709070892BE9F0E60CF71C081D191D2E
:1004F0009A01AB012A0D3B1D4C1D5D1D80E090E073
:10050000A0E0B0E0E614F7040805190520F481E046
:1005100090E0A0E0B0E0BA01A901480F591F6A1F9E
:100520007B1FAA0CBB1CCC1CDD1C97FE08C081E005
:1005300090E0A0E0B0E0A82AB92ACA2ADB2A3196C6
:10054000E032F10549F0660C771C881C991C569422
:10055000479437942794C3CFFA85EA892B893C893D
:100560008B859C85280F391F2E5F3F4F17C0CA010E
:1005700081709070892B61F016950795F794E79438
:1005800080E090E0A0E0B0E8E82AF92A0A2B1B2BD3
:1005900076956795579547952F5F3F4F77FDE7CF46
:1005A0000CC0440F551F661F771F17FD4160EE0CEE
:1005B000FF1C001F111F21503040403090E05907B0
:1005C00090E0690790E4790760F32B8F3C8FDB01A3
:1005D000CA018F779070A070B07080349105A1052A
:1005E000B10561F447FD0AC0E114F10401051105EC
:1005F00029F0405C5F4F6F4F7F4F40781A8EFE1797
:1006000011F081E08A8F4D8F5E8F6F8F78A383E02A
:10061000898FCE0149960E94F503A096E2E10C94E1
:10062000A412A8E1B0E0E7E1F3E00C94941269832E
:100630007A838B839C832D833E834F83588789E005
:10064000E82EF12CEC0EFD1ECE010196B7010E94A2
:10065000CA048E010F5E1F4FCE010596B8010E949D
:10066000CA048985823040F08989823028F0C70128
:10067000B8010E94420501C08FEF6896E6E00C9435
:10068000B012A8E1B0E0E7E4F3E00C9494126983BF
:100690007A838B839C832D833E834F83588789E0A5
:1006A000E82EF12CEC0EFD1ECE010196B7010E9442
:1006B000CA048E010F5E1F4FCE010596B8010E943D
:1006C000CA048985823040F08989823028F0C701C8
:1006D000B8010E94420501C08FEF6896E6E00C94D5
:1006E000B012A8E1B0E0E7E7F3E00C94941269835C
:1006F0007A838B839C832D833E834F83588789E045
:10070000E82EF12CEC0EFD1ECE010196B7010E94E1
:10071000CA048E010F5E1F4FCE010596B8010E94DC
:10072000CA048985823040F08989823028F0C70167
:10073000B8010E94420501C081E06896E6E00C9491
:10074000B012ACE0B0E0E7EAF3E00C9498126983F1
:100750007A838B839C83CE010196BE016B5F7F4FB2
:100760000E94CA048D81823061F1823050F1843060
:1007700021F48E81882351F12EC02F81388537FDD9
:1007800020C06E812F3131051CF06623F9F023C0A3
:100790008EE190E0821B930B29853A854B855C8521
:1007A00004C056954795379527958A95D2F76623C5
:1007B000B1F050954095309521953F4F4F4F5F4F89
:1007C0000EC020E030E040E050E009C02FEF3FEFE6
:1007D0004FEF5FE704C020E030E040E050E8B901AF
:1007E000CA012C96E2E00C94B412DF92EF92FF92D1
:1007F0000F931F93FC01E480F58006811781D1805F
:100800008081823048F480E090E0A0E1B0E0E82A06
:10081000F92A0A2B1B2BA5C0843009F49FC0823013
:1008200021F4EE24FF24870105C0E114F104010541
:10083000110519F4E0E0F0E096C0628173819FEF4A
:10084000623879070CF05BC022E83FEF261B370BBC
:100850002A3131052CF020E030E040E050E02AC0A1
:10086000B801A701022E04C0769567955795479564
:100870000A94D2F781E090E0A0E0B0E004C0880FD5
:10088000991FAA1FBB1F2A95D2F70197A109B10989
:100890008E219F21A023B1230097A105B10521F04E
:1008A00081E090E0A0E0B0E09A01AB01282B392B69
:1008B0004A2B5B2BDA01C9018F779070A070B07062
:1008C00080349105A105B10539F427FF09C0205CEA
:1008D0003F4F4F4F5F4F04C0215C3F4F4F4F5F4F23
:1008E000E0E0F0E02030A0E03A07A0E04A07A0E412
:1008F0005A0710F0E1E0F0E079018A0127C0603882
:10090000710564F5FB01E158FF4FD801C7018F77EE
:100910009070A070B07080349105A105B10539F4D4
:10092000E7FE0DC080E490E0A0E0B0E004C08FE3FB
:1009300090E0A0E0B0E0E80EF91E0A1F1B1F17FFB1
:1009400005C016950795F794E794319687E01695BC
:100950000795F794E7948A95D1F705C0EE24FF2414
:100960008701EFEFF0E06E2F679566276795902F70
:100970009F77D794DD24D7948E2F8695492F462BC9
:10098000582F5D29B701CA011F910F91FF90EF9079
:10099000DF900895FC01DB01408151812281622FAB
:1009A0006F7770E0221F2227221F9381892F880FE3
:1009B000822B282F30E0991F9927991F11969C931D
:1009C000119721153105A9F54115510561057105ED
:1009D00011F482E037C082E89FEF13969C938E93C8
:1009E00012979A01AB0167E0220F331F441F551F76
:1009F0006A95D1F783E08C930DC0220F331F441FFB
:100A0000551F12968D919C911397019713969C9365
:100A10008E931297203080E0380780E0480780E40A
:100A2000580758F314962D933D934D935C93179765
:100A300008952F3F310579F4411551056105710580
:100A400019F484E08C93089564FF03C081E08C93D3
:100A500012C01C9210C02F57304013963C932E9317
:100A6000129783E08C9387E0440F551F661F771F12
:100A70008A95D1F7706414964D935D936D937C9332
:100A8000179708951F93DC01FB019C91923008F4A5
:100A900047C08081823008F443C0943051F41196ED
:100AA0001C91843099F58181682F70E0611B710978
:100AB0003FC0843021F0923031F48230B9F181812D
:100AC000882389F12DC011961C9111978230F1F085
:100AD00081811817D9F412962D913C911397828138
:100AE00093818217930794F028173907BCF0149666
:100AF0008D919D910D90BC91A02D248135814681D1
:100B00005781281739074A075B0718F4112341F06A
:100B10000AC082179307A407B50740F4112319F000
:100B200061E070E005C06FEF7FEF02C060E070E051
:100B3000CB011F910895DF93CF9300D000D00F9287
:100B4000CDB7DEB789836A834B838981282F30E054
:100B50003D832C838C819D818130910509F447C0B0
:100B60002C813D81223031052CF48C819D810097B0
:100B700071F0CBC02C813D812230310509F467C072
:100B80008C819D818330910509F491C0BEC08B8119
:100B90008823A9F4AAE3B0E0EAE3F0E08081482FDB
:100BA0008A81282F30E081E090E0022E02C0880F79
:100BB000991F0A94E2F7809584238C93A6C08B81B9
:100BC000813009F0A2C0AAE3B0E0EAE3F0E080815E
:100BD000482F8A81282F30E081E090E0022E02C069
:100BE000880F991F0A94E2F7842B8C938EC08B8117
:100BF0008823A9F4A7E3B0E0E7E3F0E08081482F81
:100C00008A81282F30E081E090E0022E02C0880F18
:100C1000991F0A94E2F7809584238C9376C08B8188
:100C2000813009F072C0A7E3B0E0E7E3F0E0808133
:100C3000482F8A81282F30E081E090E0022E02C008
:100C4000880F991F0A94E2F7842B8C935EC08B81E6
:100C50008823A9F4A4E3B0E0E4E3F0E08081482F26
:100C60008A81282F30E081E090E0022E02C0880FB8
:100C7000991F0A94E2F7809584238C9346C08B8158
:100C8000813009F042C0A4E3B0E0E4E3F0E0808109
:100C9000482F8A81282F30E081E090E0022E02C0A8
:100CA000880F991F0A94E2F7842B8C932EC08B81B6
:100CB0008823A9F4A1E3B0E0E1E3F0E08081482FCC
:100CC0008A81282F30E081E090E0022E02C0880F58
:100CD000991F0A94E2F7809584238C9316C08B8128
:100CE000813099F4A1E3B0E0E1E3F0E08081482FA6
:100CF0008A81282F30E081E090E0022E02C0880F28
:100D0000991F0A94E2F7842B8C930F900F900F9009
:100D10000F900F90CF91DF910895DF93CF9300D084
:100D200000D00F92CDB7DEB789836A834B83898168
:100D3000282F30E03D832C838C819D81813091056B
:100D400009F447C02C813D81223031052CF48C817F
:100D50009D81009771F0CBC02C813D8122303105FF
:100D600009F467C08C819D818330910509F491C09D
:100D7000BEC08B818823A9F4ABE3B0E0EBE3F0E0E5
:100D80008081482F8A81282F30E081E090E0022E78
:100D900002C0880F991F0A94E2F7809584238C93F0
:100DA000A6C08B81813009F0A2C0ABE3B0E0EBE3D9
:100DB000F0E08081482F8A81282F30E081E090E0A8
:100DC000022E02C0880F991F0A94E2F7842B8C939D
:100DD0008EC08B818823A9F4A8E3B0E0E8E3F0E0BB
:100DE0008081482F8A81282F30E081E090E0022E18
:100DF00002C0880F991F0A94E2F7809584238C9390
:100E000076C08B81813009F072C0A8E3B0E0E8E3DE
:100E1000F0E08081482F8A81282F30E081E090E047
:100E2000022E02C0880F991F0A94E2F7842B8C933C
:100E30005EC08B818823A9F4A5E3B0E0E5E3F0E090
:100E40008081482F8A81282F30E081E090E0022EB7
:100E500002C0880F991F0A94E2F7809584238C932F
:100E600046C08B81813009F042C0A5E3B0E0E5E3E4
:100E7000F0E08081482F8A81282F30E081E090E0E7
:100E8000022E02C0880F991F0A94E2F7842B8C93DC
:100E90002EC08B818823A9F4A2E3B0E0E2E3F0E066
:100EA0008081482F8A81282F30E081E090E0022E57
:100EB00002C0880F991F0A94E2F7809584238C93CF
:100EC00016C08B81813099F4A2E3B0E0E2E3F0E058
:100ED0008081482F8A81282F30E081E090E0022E27
:100EE00002C0880F991F0A94E2F7842B8C930F900D
:100EF0000F900F900F900F90CF91DF910895DF9397
:100F0000CF9300D000D000D0CDB7DEB789836A83FD
:100F10008981282F30E03D832C834C815D814130D5
:100F20005105B1F18C819D818230910534F42C8181
:100F30003D812115310571F085C04C815D814230C4
:100F4000510509F443C08C819D818330910509F4DA
:100F50005BC078C0E9E3F0E08081482F50E08A81EF
:100F6000282F30E081E090E002C0880F991F2A9579
:100F7000E2F79A01282339238A81882F90E0A9017A
:100F800002C0559547958A95E2F7CA018B835BC0ED
:100F9000E6E3F0E08081482F50E08A81282F30E09E
:100FA00081E090E002C0880F991F2A95E2F79A012C
:100FB000282339238A81882F90E0A90102C0559502
:100FC00047958A95E2F7CA018B833DC0E3E3F0E0E1
:100FD0008081482F50E08A81282F30E081E090E026
:100FE00002C0880F991F2A95E2F79A012823392316
:100FF0008A81882F90E0A90102C0559547958A956E
:10100000E2F7CA018B831FC0E0E3F0E08081482F44
:1010100050E08A81282F30E081E090E002C0880F04
:10102000991F2A95E2F79A01282339238A81882F6C
:1010300090E0A90102C0559547958A95E2F7CA014B
:101040008B8301C002C05B815E838E8126960FB6C2
:10105000F894DEBF0FBECDBFCF91DF910895DF932F
:10106000CF9300D000D0CDB7DEB789836A83898162
:10107000282F30E03C832B838B819C81813091052C
:10108000D1F02B813C81223031052CF48B819C8165
:10109000009761F01EC02B813C812230310581F028
:1010A0008B819C818330910581F013C0EBE3F0E0EC
:1010B0008A8180830EC0E8E3F0E08A81808309C0E2
:1010C000E5E3F0E08A81808304C0E2E3F0E08A8116
:1010D00080830F900F900F900F90CF91DF91089524
:1010E000DF93CF9300D000D0CDB7DEB789836A837A
:1010F0008981282F30E03C832B838B819C81813038
:101100009105D1F02B813C81223031052CF48B816B
:101110009C81009761F01EC02B813C8122303105FB
:1011200081F08B819C818330910581F013C0EAE3CB
:10113000F0E08A8180830EC0E7E3F0E08A8180835B
:1011400009C0E4E3F0E08A81808304C0E1E3F0E0D9
:101150008A8180830F900F900F900F90CF91DF9135
:101160000895DF93CF930F92CDB7DEB71982AAE22D
:10117000B0E0EAE2F0E0808188608C93AAE2B0E01F
:10118000EAE2F0E0808180618C93898180688983C4
:10119000898184608983898182608983E0E4F0E0C9
:1011A00089818083E9E2F0E083E380830F90CF912F
:1011B000DF910895DF93CF930F92CDB7DEB7898388
:1011C000EBE2F0E08081882F90E08072907095953E
:1011D00087959595879595958795959587959595F7
:1011E0008795009769F3ECE2F0E0898180830F90A6
:1011F000CF91DF910895DF93CF93CDB7DEB7EBE2C8
:10120000F0E08081881F8827881F882F90E09070E9
:101210000097A9F3ECE2F0E08081CF91DF9108958F
:10122000DF93CF9300D0CDB7DEB79A8389830AC00E
:10123000E981FA8180810E94DA0889819A81019688
:101240009A838983E981FA818081882389F70F90C5
:101250000F90CF91DF910895DF93CF9300D0CDB75A
:10126000DEB79A83898315C0E981FA8180818A304B
:1012700031F489819A8101969A8389830AC0E98130
:10128000FA8180810E94DA0889819A8101969A8385
:101290008983E981FA818081882331F70F900F904B
:1012A000CF91DF910895DF93CF9300D000D0CDB7D9
:1012B000DEB78B819C819A8389830E94FB08EB8136
:1012C000FC818083EB81FC8180818D3031F08B81CA
:1012D0009C8101969C838B83F0CF89819A810F90AA
:1012E0000F900F900F90CF91DF910895DF93CF93E0
:1012F00000D0CDB7DEB78A8381E089838A818823D5
:1013000001F580E30E94DA081CC08981882F90E0F3
:101310009C01220F331FC901880F991F880F991F45
:10132000820F931F282F8A819AE0692F0E947C12D6
:10133000892F820F89838A819AE0692F0E947C120B
:101340008A838A81882309F70FC089819AE0692FEF
:101350000E947C12892F805D0E94DA0889819AE0C0
:10136000692F0E947C1289838981813071F70F90E7
:101370000F90CF91DF910895DF93CF93CDB7DEB774
:1013800027970FB6F894DEBF0FBECDBF9C838B832B
:101390007E836D831A8219822BC08A81282F30E0C8
:1013A0008B819C81FC01E20FF31F80818A3021F444
:1013B0008A818F5F8A831CC08A81282F30E08B81CD
:1013C0009C81FC01E20FF31F40818981282F30E0CE
:1013D0008D819E81FC01E20FF31F8081481711F07F
:1013E0001F821FC08A818F5F8A8389818F5F898373
:1013F0008A81282F30E08B819C81FC01E20FF31F52
:101400008081882351F68981282F30E08D819E814B
:10141000FC01E20FF31F8081882309F0BECF81E039
:101420008F838F8127960FB6F894DEBF0FBECDBF96
:10143000CF91DF910895DF93CF93CDB7DEB7CC5135
:10144000D2400FB6F894DEBF0FBECDBF83E06FEF82
:101450000E9470080E94B108CE018B589E4F2CE369
:10146000FC01DF01322F1D923A95E9F7CE018B582E
:101470009E4FC752DE4F99838883C95DD140C752C2
:10148000DE4FA881B981C95DD140C552DE4FB98315
:10149000A883CB5DD140E8E6F1E0C352DE4FF9838B
:1014A000E883CD5DD140F5E0C152DE4FF883CF5DDA
:1014B000D140C352DE4FA881B981CD5DD1400C909F
:1014C000C352DE4FE881F981CD5DD1403196C352E0
:1014D000DE4FF983E883CD5DD140C552DE4FA88150
:1014E000B981CB5DD1400C92C552DE4FE881F981C4
:1014F000CB5DD1403196C552DE4FF983E883CB5D99
:10150000D140C152DE4FF881CF5DD140F150C15280
:10151000DE4FF883CF5DD140C152DE4F2881CF5DD1
:10152000D140222331F6C752DE4FA881B981C95D6F
:10153000D14015961C92FE01EB58FE4FC052DE4F73
:10154000F983E883C05ED140C052DE4F28813981E3
:10155000C05ED1402A5F3F4FCE51DE4F3983288392
:10156000C25ED1408EE691E0CC51DE4F99838883F4
:10157000C45ED14095E0CA51DE4F9883C65ED1402B
:10158000CC51DE4FA881B981C45ED1400C90CC51C2
:10159000DE4FE881F981C45ED1403196CC51DE4FF7
:1015A000F983E883C45ED140CE51DE4FA881B98172
:1015B000C25ED1400C92CE51DE4FE881F981C25E0D
:1015C000D1403196CE51DE4FF983E883C25ED140DF
:1015D000CA51DE4FF881C65ED140F150CA51DE4F8C
:1015E000F883C65ED140CA51DE4F2881C65ED14025
:1015F000222331F6C052DE4FA881B981C05ED140AE
:101600001B961C92FE01EB58FE4FC951DE4FF98329
:10161000E883C75ED140C951DE4F28813981C75E5A
:10162000D140245F3F4FC751DE4F39832883C95EC5
:10163000D14084E791E0C551DE4F99838883CB5E2A
:10164000D14095E0C351DE4F9883CD5ED140C55166
:10165000DE4FA881B981CB5ED1400C90C551DE4FE1
:10166000E881F981CB5ED1403196C551DE4FF983D7
:10167000E883CB5ED140C751DE4FA881B981C95EF6
:10168000D1400C92C751DE4FE881F981C95ED1404B
:101690003196C751DE4FF983E883C95ED140C3510B
:1016A000DE4FF881CD5ED140F150C351DE4FF8835B
:1016B000CD5ED140C351DE4F2881CD5ED140222383
:1016C00031F6C951DE4FA881B981C75ED14051962C
:1016D0001C92FE01EB58FE4FC251DE4FF983E883A6
:1016E000CE5ED140C251DE4F28813981CE5ED140DD
:1016F0002E5E3F4FC051DE4F39832883C05FD140FB
:101700008AE791E0CE50DE4F99838883C25FD14053
:1017100095E0CC50DE4F9883C45FD140CE50DE4F71
:10172000A881B981C25FD1400C90CE50DE4FE881D4
:10173000F981C25FD1403196CE50DE4FF983E88304
:10174000C25FD140C051DE4FA881B981C05FD14096
:101750000C92C051DE4FE881F981C05FD1403196D3
:10176000C051DE4FF983E883C05FD140CC50DE4FDB
:10177000F881C45FD140F150CC50DE4FF883C45F94
:10178000D140CC50DE4F2881C45FD140222331F6B6
:10179000C251DE4FA881B981CE5ED14057961C92CE
:1017A000FE01EB58FE4FCB50DE4FF983E883C55F57
:1017B000D140CB50DE4F28813981C55FD140285EB2
:1017C0003F4FC950DE4F39832883C75FD14080E83F
:1017D00091E0C750DE4F99838883C95FD14095E07F
:1017E000C550DE4F9883CB5FD140C750DE4FA881F4
:1017F000B981C95FD1400C90C750DE4FE881F981B3
:10180000C95FD1403196C750DE4FF983E883C95F85
:10181000D140C950DE4FA881B981C75FD1400C9239
:10182000C950DE4FE881F981C75FD1403196C95078
:10183000DE4FF983E883C75FD140C550DE4FF881A2
:10184000CB5FD140F150C550DE4FF883CB5FD14024
:10185000C550DE4F2881CB5FD140222331F6CB50DB
:10186000DE4FA881B981C55FD1405D961C92FE0113
:10187000EB58FE4FC450DE4FF983E883CC5FD14074
:10188000C450DE4F28813981CC5FD140225E3F4F6A
:10189000C250DE4F39832883CE5FD14086E891E085
:1018A000C050DE4F99838883C050D24095E0CE5F10
:1018B000DD4F9883C250D240C050DE4FA881B9811D
:1018C000C050D2400C90C050DE4FE881F981C0502A
:1018D000D2403196C050DE4FF983E883C050D240E9
:1018E000C250DE4FA881B981CE5FD1400C92C25068
:1018F000DE4FE881F981CE5FD1403196C250DE4F94
:10190000F983E883CE5FD140CE5FDD4FF881C250CE
:10191000D240F150CE5FDD4FF883C250D240CE5F4F
:10192000DD4F2881C250D240222331F6C450DE4F11
:10193000A881B981CC5FD14093961C92FE01EB58EF
:10194000FE4FCD5FDD4FF983E883C350D240CD5FBA
:10195000DD4F28813981C350D2402C5D3F4FCB5F92
:10196000DD4F39832883C550D2408CE891E0C95FB0
:10197000DD4F99838883C750D24095E0C75FDD4F24
:101980009883C950D240C95FDD4FA881B981C75043
:10199000D2400C90C95FDD4FE881F981C750D24039
:1019A0003196C95FDD4FF983E883C750D240CB5FE2
:1019B000DD4FA881B981C550D2400C92CB5FDD4F7D
:1019C000E881F981C550D2403196CB5FDD4FF98374
:1019D000E883C550D240C75FDD4FF881C950D2407F
:1019E000F150C75FDD4FF883C950D240C75FDD4F6C
:1019F0002881C950D240222331F6CD5FDD4FA88126
:101A0000B981C350D24099961C92FE01EB58FE4F0B
:101A1000C65FDD4FF983E883CA50D240C65FDD4F11
:101A200028813981CA50D240265D3F4FC45FDD4FC7
:101A300039832883CC50D24082E991E0C25FDD4FE8
:101A400099838883CE50D24095E0C05FDD4F988364
:101A5000C051D240C25FDD4FA881B981CE50D24083
:101A60000C90C25FDD4FE881F981CE50D2403196B3
:101A7000C25FDD4FF983E883CE50D240C45FDD4FB3
:101A8000A881B981CC50D2400C92C45FDD4FE8816F
:101A9000F981CC50D2403196C45FDD4FF983E883A1
:101AA000CC50D240C05FDD4FF881C051D240F150E0
:101AB000C05FDD4FF883C051D240C05FDD4F288149
:101AC000C051D240222331F6C65FDD4FA881B981D3
:101AD000CA50D2409F961C92FE01EB58FE4FCF5E3B
:101AE000DD4FF983E883C151D240CF5EDD4F2881BD
:101AF0003981C151D240205D3F4FCD5EDD4F3983EA
:101B00002883C351D24088E991E0CB5EDD4F9983B1
:101B10008883C551D24095E0C95EDD4F9883C75197
:101B2000D240CB5EDD4FA881B981C551D2400C9027
:101B3000CB5EDD4FE881F981C551D2403196CB5E55
:101B4000DD4FF983E883C551D240CD5EDD4FA881DA
:101B5000B981C351D2400C92CD5EDD4FE881F9814D
:101B6000C351D2403196CD5EDD4FF983E883C35136
:101B7000D240C95EDD4FF881C751D240F150C95EF5
:101B8000DD4FF883C751D240C95EDD4F2881C75170
:101B9000D240222331F6CF5EDD4FA881B981C151F9
:101BA000D240D5961C92CE018B589E4FFC01F696E2
:101BB000C85EDD4FF983E883C851D2402EE931E099
:101BC000C65EDD4F39832883CA51D24036E0C45EF9
:101BD000DD4F3883CC51D240C65EDD4FA881B9813C
:101BE000CA51D2400C90C65EDD4FE881F981CA51DE
:101BF000D2403196C65EDD4FF983E883CA51D240A8
:101C0000C85EDD4FA881B981C851D2400C92C85E30
:101C1000DD4FE881F981C851D2403196C85EDD4F71
:101C2000F983E883C851D240C45EDD4FF881CC51BE
:101C3000D240F150C45EDD4FF883CC51D240C45E37
:101C4000DD4F2881CC51D240222331F6CE018F5472
:101C50009E4F28E2FC01DF01322F1D923A95E9F7F1
:101C6000FE01EF54FE4F8091A4019091A501A09137
:101C7000A601B091A70180839183A283B383FE0163
:101C8000EF54FE4F8091A8019091A901A091AA0163
:101C9000B091AB0184839583A683B783FE01EF5493
:101CA000FE4F8091AC019091AD01A091AE01B09139
:101CB000AF0180879187A287B387FE01EF54FE4F63
:101CC0008091B0019091B101A091B201B091B301A6
:101CD00084879587A687B787FE01EF54FE4F8091D2
:101CE000B4019091B501A091B601B091B701808B7C
:101CF000918BA28BB38BFE01EF54FE4F8091B80104
:101D00009091B901A091BA01B091BB01848B958BE0
:101D1000A68BB78BFE01EF54FE4F8091BC019091D2
:101D2000BD01A091BE01B091BF01808F918FA28FA4
:101D3000B38FFE01EF54FE4F8091C0019091C1011D
:101D4000A091C201B091C301848F958FA68FB78FE8
:101D5000FE01EF54FE4F8091C4019091C501A09106
:101D6000C601B091C70180A391A3A2A3B3A3FE01B2
:101D7000EF54FE4F8091C8019091C901A091CA0112
:101D8000B091CB0184A395A3A6A3B7A3FE01E95B01
:101D9000FF4F108280E690E00E9410098DE690E0EF
:101DA0000E941009FE01EA5BFF4F1082A9C08EE776
:101DB00090E00E9410090E945309FE01EC5BFF4F66
:101DC00091838083FE01ED5BFF4F108228C0FE01EE
:101DD000ED5BFF4F8081282F30E0FE01EC5BFF4F71
:101DE0000190F081E02D4081CE01875B9F4FFC0187
:101DF000E20FF31F4083DE01AC5BBF4FFE01EC5BE3
:101E0000FF4F8081918101968D939C93DE01AD5BA4
:101E1000BF4FFE01ED5BFF4F80818F5F8C93FE0112
:101E2000EC5BFF4F0190F081E02D80818D3079F6E1
:101E3000FE01ED5BFF4F8081282F30E0CE01875BF4
:101E40009F4FFC01E20FF31F1082CE01875B9F4F73
:101E50000E942C09FE01EE5BFF4F108232C0AE01E2
:101E60004B585E4FFE01EE5BFF4F8081282F30E024
:101E7000C901880F991F820F931F880F991F9A011C
:101E8000280F391FCE01875B9F4FB9010E94BC0903
:101E9000882371F0FE01E95BFF4F81E08083DE0162
:101EA000A85BBF4FFE01EE5BFF4F80818C930FC09C
:101EB000DE01AE5BBF4FFE01EE5BFF4F80818F5FA7
:101EC0008C93FE01EE5BFF4F80818A3040F2FE0171
:101ED000E95BFF4F80818823D1F4FE01EA5BFF4F6D
:101EE0008081823020F48CE890E00E941009DE01AD
:101EF000AA5BBF4FFE01EA5BFF4F80818F5F8C932F
:101F0000FE01EA5BFF4F8081833008F450CFFE0171
:101F1000E95BFF4F8081813009F0DEC181EB90E009
:101F20000E941009FE01EF5BFF4F1082CDC182ECD1
:101F300090E00E9410090E945309FE01FF969183D0
:101F400080831EAE1CC08EAD282F30E0FE01FF96B0
:101F50000190F081E02D4081CE0183559F4FFC011F
:101F6000E20FF31F4083FE01FF968081918101966D
:101F7000FE01FF96918380838EAD8F5F8EAFFE0151
:101F8000FF960190F081E02D80818D30E1F68EADDD
:101F9000282F30E0CE0183559F4FFC01E20FF31F45
:101FA0001082CE0183559F4F0E942C099E012F5411
:101FB0003E4FFE01E85BFF4F8081882F90E0880F45
:101FC000991F880F991F280F391FCE0183559F4FE6
:101FD000B9010E94BC09882309F453C083E067E07B
:101FE00041E00E948D0680ED90E00E9410098BEE8A
:101FF00090E00E9410090E9453099DAF8CAF1BAE68
:1020000015C08BAD282F30E0ECADFDAD4081CE0189
:102010008F5E9E4FFC01E20FF31F40838CAD9DADA0
:1020200001969DAF8CAF8BAD8F5F8BAFECADFDADEF
:1020300080818D3031F78BAD282F30E0CE018F5E5F
:102040009E4FFC01E20FF31F1082CE018F5E9E4F68
:102050000E942C09FE01EF5EFE4F8181803331F436
:10206000FE01EF5EFE4F8281882329F08EE091E031
:102070000E941009BCCF83E067E040E00E948D061B
:1020800085CEFE01EF5BFF4F8081823028F485E230
:1020900091E00E9410090FC18CE491E00E941009A8
:1020A0001AAE05C183E066E041E00E948D0683E040
:1020B00065E041E00E948D0683E064E041E00E941B
:1020C0008D0680E090E0A6E9B3E48DAB9EABAFABAC
:1020D000B8AF6DA97EA98FA998AD20E030E04AEF96
:1020E00054E40E941702DC01CB0189AB9AABABAB85
:1020F000BCAB69A97AA98BA99CA920E030E040E893
:102100005FE30E94710388232CF481E090E098AB98
:102110008FA73FC069A97AA98BA99CA920E03FEFAE
:102120004FE757E40E94110318164CF56DA97EA9DC
:102130008FA998AD20E030E040E251E40E94170200
:10214000DC01CB01BC01CD010E944100DC01CB01CF
:1021500098AB8FA70FC088EC90E09EA78DA78DA5A8
:102160009EA50197F1F79EA78DA78FA598A9019726
:1021700098AB8FA78FA598A9009769F714C069A994
:102180007AA98BA99CA90E944100DC01CB0198ABE4
:102190008FA78FA598A99CA78BA78BA59CA5019716
:1021A000F1F79CA78BA783E066E040E00E948D06D4
:1021B00083E065E040E00E948D0683E064E040E05B
:1021C0000E948D0680E090E0A6E9B3E48FA398A773
:1021D000A9A7BAA76FA178A589A59AA520E030E0A4
:1021E0004AEF54E40E941702DC01CB018BA39CA3AD
:1021F000ADA3BEA36BA17CA18DA19EA120E030E088
:1022000040E85FE30E94710388232CF481E090E0B2
:102210009AA389A33FC06BA17CA18DA19EA120E0C0
:102220003FEF4FE757E40E94110318164CF56FA1DA
:1022300078A589A59AA520E030E040E251E40E940B
:102240001702DC01CB01BC01CD010E944100DC0181
:10225000CB019AA389A30FC088EC90E098A38F8F3D
:102260008F8D98A10197F1F798A38F8F89A19AA1DB
:1022700001979AA389A389A19AA1009769F714C02D
:102280006BA17CA18DA19EA10E944100DC01CB012C
:102290009AA389A389A19AA19E8F8D8F8D8D9E8DE2
:1022A0000197F1F79E8F8D8F8AAD8F5F8AAF8AADD0
:1022B000883008F4F7CEDE01AF5BBF4FFE01EF5B65
:1022C000FF4F80818F5F8C93FE01EF5BFF4F80811A
:1022D000833008F42CCE5ACD8CE491E00E94100992
:1022E00019AE05C183E066E041E00E948D0683E0FF
:1022F00065E041E00E948D0683E064E041E00E94D9
:102300008D0680E090E0A6E9B3E4898F9A8FAB8FC9
:10231000BC8F698D7A8D8B8D9C8D20E030E04AEFEB
:1023200054E40E941702DC01CB018D8B9E8BAF8B96
:10233000B88F6D897E898F89988D20E030E040E8E4
:102340005FE30E94710388232CF481E090E09C8B72
:102350008B8B3FC06D897E898F89988D20E03FEF00
:102360004FE757E40E94110318164CF5698D7A8DDA
:102370008B8D9C8D20E030E040E251E40E941702FA
:10238000DC01CB01BC01CD010E944100DC01CB018D
:102390009C8B8B8B0FC088EC90E09A8B898B898902
:1023A0009A890197F1F79A8B898B8B899C89019780
:1023B0009C8B8B8B8B899C89009769F714C06D89E6
:1023C0007E898F89988D0E944100DC01CB019C8B16
:1023D0008B8B8B899C89988B8F878F8598890197A8
:1023E000F1F7988B8F8783E066E040E00E948D06CE
:1023F00083E065E040E00E948D0683E064E040E019
:102400000E948D0680E090E0A6E9B3E48B879C876C
:10241000AD87BE876B857C858D859E8520E030E00D
:102420004AEF54E40E941702DC01CB018F839887A6
:10243000A987BA876F81788589859A8520E030E001
:1024400040E85FE30E94710388232CF481E090E070
:102450009E838D833FC06F81788589859A8520E032
:102460003FEF4FE757E40E94110318164CF56B85B8
:102470007C858D859E8520E030E040E251E40E941D
:102480001702DC01CB01BC01CD010E944100DC013F
:10249000CB019E838D830FC088EC90E09C838B835F
:1024A0008B819C810197F1F79C838B838D819E8129
:1024B00001979E838D838D819E81009769F714C05B
:1024C0006F81788589859A850E944100DC01CB0166
:1024D0009E838D838D819E819A83898389819A8150
:1024E0000197F1F79A83898389AD8F5F89AF89ADB1
:1024F000883008F4F7CE4ACC991B79E004C0991FC4
:10250000961708F0961B881F7A95C9F7809508954D
:102510002F923F924F925F926F927F928F929F92F3
:10252000AF92BF92CF92DF92EF92FF920F931F93E1
:10253000CF93DF93CDB7DEB7CA1BDB0B0FB6F89492
:10254000DEBF0FBECDBF09942A88398848885F84D2
:102550006E847D848C849B84AA84B984C884DF8043
:10256000EE80FD800C811B81AA81B981CE0FD11D27
:102570000FB6F894DEBF0FBECDBFED010895F894FD
:02258000FFCF8B
:102582000A0A2057656C636F6D65200A000A2050A5
:102592006C6561736520456E7465722020000A20A7
:1025A200557365726E616D65203A20000A20496E8E
:1025B20076616C696420557365726E616D65205039
:1025C2006C656173652054727920616761696E2060
:1025D200000A0A20506C6561736520456E7465724D
:1025E20020000A2050617373776F7264203A2000D2
:1025F2000A0A2057656C636F6D6520617420494D2E
:102602005420486F6D65203A2920000A0A20546F31
:10261200204C6F636B2074686520446F6F72206575
:102622006E746572202820302029203A20000A206A
:10263200496E636F72726563742074727920616788
:1026420061696E20000A20496E76616C69642050CF
:10265200617373776F726420506C65617365207467
:10266200727920616761696E203A20000A0A20218E
:102672002121212057726F6E6720456E7472792076
:1026820021212121200A2000696D74310000696D29
:1026920074320000696D74330000696D7434000097
:1026A200696D74350000696D74360000696D7437A8
:1026B2000000696D74380000696D74390000696D3D
:1026C200743130003031000030320000303300000D
:1026D2003034000030350000303600003037000062
:1026E2003038000030390000303130000000000086
:0426F20000000000E4
:00000001FF
